:020000040800F2
:1000000000000220A90700087D0700087F070008FC
:10001000810700088307000885070008000000002A
:10002000000000000000000000000000870700083A
:1000300089070008000000008B0700088D070008F2
:10004000F9070008F9070008F9070008F907000890
:10005000F9070008F9070008F9070008F907000880
:10006000F9070008F9070008F9070008F907000870
:10007000F9070008F9070008F9070008F907000860
:10008000F9070008F9070008F9070008F907000850
:1000900095070008F9070008F9070008F9070008A4
:1000A000F9070008F9070008F9070008F907000830
:1000B000F9070008F9070008F9070008F907000820
:1000C000F9070008F9070008F9070008F907000810
:1000D000F9070008F9070008F9070008F907000800
:1000E000F9070008F9070008F9070008F9070008F0
:1000F000F9070008F9070008F9070008F9070008E0
:10010000F9070008F9070008F9070008F9070008CF
:10011000F9070008F9070008F9070008F9070008BF
:10012000F9070008F9070008F9070008F9070008AF
:10013000F90700080000000000000000F9070008AF
:10014000F9070008F9070008F9070008F90700088F
:10015000F9070008F9070008F9070008F90700087F
:10016000F9070008F9070008F9070008F90700086F
:10017000F9070008F9070008F90700080000000067
:1001800000000000F9070008000000000000000067
:10019000F90700080000000000000000F90700084F
:1001A000000000000000000000000000F907000847
:1001B000F9070008F9070008F9070008F90700081F
:0401C000F907000833
:1001C40010B5054C237833B9044B13B10448AFF38D
:1001D40000800123237010BD3C04002000000000B7
:1001E4001818000808B5034B1BB103490348AFF3C3
:1001F400008008BD0000000040040020181800081A
:1002040053B94AB9002908BF00281CBF4FF0FF3179
:100214004FF0FF3000F074B9ADF1080C6DE904CE75
:1002240000F006F8DDF804E0DDE9022304B07047CD
:100234002DE9F047089E0D4604468846002B4DD113
:100244008A42944668D9B2FA82F252B101FA02F3B0
:10025400C2F1200120FA01F10CFA02FC41EA030880
:1002640094404FEA1C45210CB8FBF5FE1FFA8CF7AD
:1002740005FB1E8341EA03430EFB07F199420BD9A8
:100284001CEB03030EF1FF3080F01E81994240F213
:100294001B81AEF1020E63445B1AA4B2B3FBF5F00A
:1002A40005FB103344EA034400FB07F7A7420AD9CD
:1002B4001CEB040400F1FF3380F00881A74240F2F4
:1002C400058164440238E41B40EA0E4000211EB15B
:1002D400D4400023C6E90043BDE8F0878B4208D927
:1002E400002E00F0EE800021C6E900050846BDE8B6
:1002F400F087B3FA83F100294AD1AB4202D3824298
:1003040000F2F980841A65EB030301209846002E5D
:10031400E2D0C6E90048DFE702B9FFDEB2FA82F2B2
:10032400002A40F09180A1EB0C054FEA1C471FFA0C
:100334008CFE0121B5FBF7F307FB1350250C45EAAE
:1003440000450EFB03F0A84208D91CEB050503F198
:10035400FF3802D2A84200F2CB8043462D1AA4B241
:10036400B5FBF7F007FB105544EA05440EFB00FE0D
:10037400A64508D91CEB040400F1FF3502D2A645BA
:1003840000F2BB802846A4EB0E0440EA03409EE73B
:10039400C1F120078B4022FA07FC4CEA030C20FA37
:1003A40007F405FA01F31C43FD404FEA1C4900FA27
:1003B40001F3B5FBF9F8200C1FFA8CFE09FB185564
:1003C40040EA054508FB0EF0A84202FA01F20BD9F7
:1003D4001CEB050508F1FF3A80F08880A84240F242
:1003E4008580A8F1020865442D1AA4B2B5FBF9F082
:1003F40009FB105544EA054500FB0EFEAE4508D93D
:100404001CEB050500F1FF346CD2AE456AD9023805
:10041400654440EA0840A0FB0294A5EB0E05A54202
:10042400C846A64656D353D05EB1B3EB080265EB7B
:100434000E0505FA07F722FA01F3CD401F43C6E97A
:1004440000750021BDE8F087C2F1200320FA03F112
:100454000CFA02FC25FA03F395400D434FEA1C47BE
:100464001FFA8CFEB3FBF7F107FB11302B0C43EAA8
:10047400004301FB0EF0984204FA02F408D91CEB85
:10048400030301F1FF382FD298422DD90239634476
:100494001B1AADB2B3FBF7F007FB103345EA034573
:1004A40000FB0EF3AB4208D91CEB050500F1FF3845
:1004B40016D2AB4214D902386544ED1A40EA014120
:1004C40038E73146304607E78646E5E61846FAE659
:1004D4004B45A9D2B9EB020864EB0C0E0138A3E733
:1004E4004046EAE7204694E74146D1E7D0467BE719
:1004F400023B654432E7084609E76444023842E7B0
:10050400704700BF30B58BB000240594069407945F
:100514000894099401941E4B1A6B42F004021A6366
:100524001A6B02F004020192019A02941A6B42F0CF
:1005340080021A631A6B02F080020292029A0394F8
:100544001A6B42F001021A631A6B02F00102039261
:10055400039A04941A6B42F002021A631B6B03F0B1
:1005640002030493049B0B4D22464FF4005128468A
:1005740000F0D8FC4FF4005305930123069307942D
:10058400089405A9284600F0E1FB0BB030BD00BF7C
:10059400003802400008024072B6FEE708B50D4874
:1005A4000D4B03600223436000238360C3604FF458
:1005B400602202614FF480024261037643768376BF
:1005C400C3760377437700F07DF900B908BDFFF7E0
:1005D400E3FF00BF580400200064004000B595B05C
:1005E4003422002107A801F053F800230293039357
:1005F4000493059306930093204A116C41F08051B3
:100604001164126C02F080520092009A01931C4B08
:100614001A6842F440421A601B6803F44043019391
:10062400019B012307934FF48033089302230D9316
:100634004FF480020E9208220F92A8221092119376
:100644001293139307A800F0DDFD98B90F230293CA
:1006540002230393002304934FF4A05305934FF410
:1006640080530693052102A800F062FC20B915B05E
:100674005DF804FBFFF790FFFFF78EFF00380240A0
:100684000070004008B500F0DDF8FFF7A7FFFFF7A2
:1006940039FFFFF783FF094C00220821204600F0B0
:1006A40041FC642000F0FAF801220821204600F001
:1006B40039FC642000F0F2F8EDE700BF00000240CE
:1006C40082B0002100910B4B5A6C42F480425A6470
:1006D4005A6C02F480420092009A01911A6C42F022
:1006E40080521A641B6C03F080530193019B02B087
:1006F400704700BF0038024010B588B00023039350
:1007040004930593069307930268194B9A4201D008
:1007140008B010BD0024019403F5EA331A6C42F0CA
:1007240000721A641A6C02F000720192019A029427
:100734001A6B42F002021A631B6B03F0020302936A
:10074400029B4FF440730393022304930323069301
:100754000923079303A9074800F0F8FA2246214623
:10076400142000F099FA142000F0CEFAD0E700BF6C
:100774000064004000040240FEE7FEE7FEE7FEE7F7
:10078400FEE770477047704708B500F075F808BD7C
:1007940008B5024800F049F908BD00BF580400201C
:1007A40070470000DFF834D00D480E490E4A00238C
:1007B40002E0D458C4500433C4188C42F9D30B4A11
:1007C4000B4C002301E013600432A242FBD3FFF779
:1007D400E7FF00F039FFFFF755FF704700000220E4
:1007E400000000203C040020581800083C040020AD
:1007F40088040020FEE7000010B504460E4B18786C
:100804004FF47A73B3FBF0F30C4A1068B0FBF3F0C7
:1008140000F088FA68B90F2C01D901200AE00022FF
:1008240021464FF0FF3000F037FA054B1C600020E2
:1008340000E0012010BD00BF0400002000000020E3
:100844000800002008B50B4B1A6842F400721A60C5
:100854001A6842F480621A601A6842F480721A605C
:10086400032000F007FA0F20FFF7C6FFFFF728FF69
:10087400002008BD003C0240034A1168034B1B786A
:100884000B441360704700BF800400200400002064
:10089400014B1868704700BF8004002038B5044637
:1008A400FFF7F6FF0546B4F1FF3F02D0044B1B7877
:1008B4001C44FFF7EDFF401BA042FAD338BD00BF34
:1008C40004000020002800F0A18038B5044690F808
:1008D4002030D3B12268136843F001031360FFF79B
:1008E400D7FF054623685A6812F0010F10D1FFF7AD
:1008F400CFFF401B0A28F5D9636A43F400336362CF
:10090400052384F82030012038BDFFF7F5FEE1E728
:100914001A6822F002021A60FFF7BAFF054623683C
:100924005A6812F0020F0DD0FFF7B2FF401B0A28DD
:10093400F5D9636A43F400336362052384F82030F5
:100944000120E1E7227E012A3DD01A6822F08002CC
:100954001A60637E012B3BD02268136823F04003A6
:100964001360A37E012B39D02268136823F020037F
:100974001360E37E012B37D02268136843F0100321
:100984001360237F012B35D02268136823F00803FA
:100994001360637F012B33D02268136823F00403B0
:1009A4001360A368E2681343226913436269134323
:1009B4006268013A21681343CB610020606201231D
:1009C40084F82030A0E71A6842F080021A60C0E779
:1009D4002268136843F040031360C2E72268136877
:1009E40043F020031360C4E72268136823F0100364
:1009F4001360C6E72268136843F008031360C8E76E
:100A04002268136843F004031360CAE701207047A7
:100A1400704770477047704770477047704770471A
:100A2400704770477047704770472DE9F84F054687
:100A340003685C69D3F804809F68D3F80CB0D3F8DA
:100A440010A0D3F8189014F001063BD017F001065B
:100A540016D001229A6017F0020F08D117F0040F84
:100A64000CD117F0080606D04FF4805608E0FFF7C3
:100A7400CFFF002604E0FFF7CEFF01E04FF400664D
:100A840017F4807F0DD02B684FF480729A6017F4AE
:100A9400007F40F0868017F4806F00F0868046F473
:100AA400005617F4803F0DD02B684FF480329A60C3
:100AB40017F4003F40F0838017F4802F00F0838008
:100AC40046F4004614F0080F07D01BF0100F04D0B2
:100AD40046F400762B681022DA6014F0040F02D07A
:100AE4001BF0080F79D114F0020F04D02B68DB68D7
:100AF40013F0030F78D114F0400F07D01AF0100F41
:100B040004D046F480662B6810221A6114F0200F7A
:100B140002D01AF0080F6BD114F0100F04D02B6818
:100B24001B6913F0030F6AD114F4003F02D018F0CC
:100B3400100F68D114F4803F02D018F0080F69D167
:100B440014F4004F7AD018F0040F74D014F4807F9A
:100B540004D019F0010F01D046F0010614F4007F0F
:100B640004D019F0020F01D046F0020614F4806F8D
:100B740004D019F0040F01D046F0040614F4006FF9
:100B840059D019F0700956D0B9F1400F65D058D832
:100B9400B9F1200F5ED0B9F1300F42D146F02006F2
:100BA40044E02846FFF735FF7BE717F4006F02D0D7
:100BB40046F4804675E72846FFF72EFF71E728467E
:100BC400FFF728FF7EE717F4002F02D046F48036A3
:100BD40078E72846FFF721FF74E72B680822DA60DC
:100BE4002846FFF71CFF7EE72846FFF717FF82E73A
:100BF4002B6808221A612846FFF713FF8CE7284662
:100C0400FFF70EFF90E72B6810225A602846FFF783
:100C140009FF8FE72B6808225A602846FFF703FF75
:100C24008EE7B9F1100F01D146F008062A689369DE
:100C340023F0700393612B6804225A609EB9BDE8C7
:100C4400F88FB9F1500F0BD0B9F1600FEED146F423
:100C54008076EBE746F01006E8E746F04006E5E765
:100C640046F08006E2E76B6A1E436E622846FFF791
:100C7400DBFEE4E7074AD36823F4E0631B041B0CA0
:100C8400000200F4E060034343F0BF6343F4003325
:100C9400D360704700ED00E000B5194BDB68C3F387
:100CA4000223C3F1070CBCF1040F28BF4FF0040C5E
:100CB40003F1040EBEF1060F18D9033B4FF0FF3EBB
:100CC4000EFA0CFC21EA0C0199400EFA03F322EA15
:100CD4000303194300280BDB0901C9B200F160408A
:100CE40000F5614080F800135DF804FB0023E5E79C
:100CF40000F00F000901C9B2024B1954F4E700BF18
:100D040000ED00E014ED00E0002807DB00F01F0216
:100D1400400901239340024A42F82030704700BF43
:100D240000E100E00138B0F1807F0BD24FF0E02306
:100D34005861054AF02182F82310002098610722A7
:100D44001A6170470120704700ED00E000230F2B6B
:100D540000F2DE8070B582B060E085685E00032436
:100D6400B44025EA0405CC68B4402C43846045684B
:100D740025EA02054C68C4F300129A402A434260F3
:100D84005AE0DC08083450F8246003F007029500A8
:100D94000F22AA4026EA020E0A69AA4042EA0E027B
:100DA40040F824205CE0062200E0002202FA0EF261
:100DB4002A430234574D45F82420574A94686FEA71
:100DC4000C0224EA0C054E6816F4801F01D04CEA8C
:100DD4000405514CA560E46802EA04054E6816F463
:100DE400001F01D04CEA04054B4CE560646802EA3C
:100DF40004054E6816F4003F01D04CEA0405464C45
:100E04006560246822404D6815F4803F01D04CEAA7
:100E14000402414C226001330F2B77D801229A40FF
:100E24000C6804EA020C32EA0404F4D14C6804F0BD
:100E34000304013C012C90D94A6802F00302032AFE
:100E440009D0C4685D000322AA4024EA02048A6827
:100E5400AA402243C2604A6802F00302022A90D0E8
:100E640004684FEA430E032202FA0EF224EA020453
:100E74004A6802F0030202FA0EF2224302604A6850
:100E840012F4403FC7D000220192244A546C44F427
:100E940080445464526C02F480420192019A9C088A
:100EA400A51C1C4A52F8255003F003024FEA820E97
:100EB4000F2202FA0EF225EA0205194A90423FF483
:100EC40074AF02F58062904216D002F580629042BF
:100ED40014D002F58062904212D002F580629042F2
:100EE40010D002F5806290420ED002F580629042EA
:100EF4003FF459AF072259E7012257E7022255E789
:100F0400032253E7042251E705224FE702B070BDE4
:100F1400704700BF00380140003C014000380240E7
:100F2400000002400AB18161704709048161704781
:100F3400002800F09B8070B50D4604464F4B1B689B
:100F440003F00F038B4208D2CBB24C4A13701368E0
:100F540003F00F038B4240F08B80236813F0020FE1
:100F640017D013F0040F04D0454A936843F4E053B8
:100F74009360236813F0080F04D0414A936843F444
:100F8400604393603E4A936823F0F003A1680B43E7
:100F94009360236813F0010F32D06368012B21D0D2
:100FA4009A1E012A25D9364A126812F0020F61D01E
:100FB40033498A6822F0030213438B60FFF768FC0D
:100FC40006462F4B9B6803F00C036268B3EB820F59
:100FD40016D0FFF75DFC801B41F288339842F0D9AC
:100FE400032042E0264A126812F4003FE0D10120B7
:100FF4003BE0234A126812F0007FD9D1012034E08B
:101004001E4B1B6803F00F03AB4207D9EAB21B4B1C
:101014001A701B6803F00F03AB422DD1236813F041
:10102400040F06D0164A936823F4E053E1680B4397
:101034009360236813F0080F07D0114A936823F4D0
:101044006043216943EAC103936000F021F80C4B2B
:101054009B68C3F303130B4AD35CD8400A4B186054
:101064000A4B1868FFF7C8FB002070BD01207047C9
:101074000120FAE70120F8E70120F6E7003C0240EE
:10108400003802403018000800000020080000204A
:1010940008B55A4B9B6803F00C03082B03D00C2BA8
:1010A40057D0574808BD554B5A6802F03F025B6859
:1010B40013F4800F2AD0514B5968C1F3881C4FEAAE
:1010C4004C11B1EB0C006EEB0E0E4FEA8E1343EA9B
:1010D40090638101091A63EB0E03DB0043EA517349
:1010E400C90011EB0C0C43F10003990200234FEAF1
:1010F4008C2041EA9C51FFF783F8404B5B68C3F3B3
:10110400014301335B00B0FBF3F0CBE73B4B596881
:10111400C1F3881C4FEA4C11B1EB0C006EEB0E0EC0
:101124004FEA8E1343EA90638101091A63EB0E03BD
:10113400DB0043EA5173C90011EB0C0C43F10003CB
:10114400990200234FEA8C2041EA9C51FFF758F89A
:10115400D3E72A4B5A6802F03F025B6813F4800F0E
:1011640028D0264B5968C1F3881C4FEA4C11B1EBC7
:101174000C006EEB0E0E4FEA8E1343EA906381016E
:10118400091A63EB0E03DB0043EA5173C90011EB48
:101194000C0C43F10003990200234FEA8C2041EA2E
:1011A4009C51FFF72DF8154B5B68C3F30273B0FB3A
:1011B400F3F077E7114B5968C1F3881C4FEA4C11DF
:1011C400B1EB0C006EEB0E0E4FEA8E1343EA906304
:1011D4008101091A63EB0E03DB0043EA5173C90072
:1011E40011EB0C0C43F10003990200234FEA8C200D
:1011F40041EA9C51FFF704F8D5E700BF00380240EC
:101204000024F400002800F0018270B582B0044686
:10121400036813F0010F41D0994B9B6803F00C0352
:10122400042B32D0964B9B6803F00C03082B27D079
:10123400934B9B6803F00C030C2B59D06368B3F5F4
:10124400803F5BD0B3F5A02F5ED08D4B1A6822F49B
:1012540080321A601A6822F480221A606368002BB4
:101264005CD0FFF715FB0546854B1B6813F4003F64
:1012740014D1FFF70DFB401B6428F5D90320CCE102
:101284007F4B5B6813F4800FD2D07D4B1B6813F443
:10129400003F03D06368002B00F0BA81236813F089
:1012A400020F60D0764B9B6813F00C0F4AD0744B3E
:1012B4009B6803F00C03082B3FD0714B9B6803F031
:1012C4000C030C2B69D0E368002B75D06D4B012205
:1012D4001A60FFF7DDFA0546694B1B6813F0020F2D
:1012E40061D1FFF7D5FA401B0228F5D9032094E118
:1012F400634B5B6813F4800FA0D0C6E7604A1368A1
:1013040043F480331360A9E75D4B1A6842F48022EA
:101314001A601A6842F480321A609FE7FFF7B8FA3D
:101324000546574B1B6813F4003FB7D0FFF7B0FADC
:10133400401B6428F5D903206FE1514B5B6813F41B
:10134400800FBAD14E4B1B6813F0020F03D0E36831
:10135400012B40F05F814A4A136823F0F8032169A6
:1013640043EAC1031360236813F0080F49D063698B
:10137400002B33D0434B0122C3F8802EFFF788FAA9
:1013840005463F4B5B6F13F0020F3AD1FFF780FA2B
:10139400401B0228F5D903203FE1394B5B6813F465
:1013A400800F90D1CEE7364A136823F0F803216901
:1013B40043EAC1031360D6E7324B00221A60FFF7F9
:1013C40067FA05462E4B1B6813F0020FCBD0FFF7CC
:1013D4005FFA401B0228F5D903201EE1294B0022A5
:1013E400C3F8802EFFF754FA0546254B5B6F13F0C4
:1013F400020F06D0FFF74CFA401B0228F5D9032050
:101404000BE1236813F0040F76D01D4B1B6C13F013
:10141400805F33D100230193194B1A6C42F0805240
:101424001A641B6C03F080530193019B0125164B36
:101434001B6813F4807F29D0A368012B3AD0052BB5
:101444003ED00F4B1A6F22F001021A671A6F22F076
:1014540004021A67A368002B3CD0FFF719FA06466A
:10146400074B1B6F13F0020F45D1FFF711FA801BD6
:1014740041F288339842F3D90320CEE00025D6E721
:101484000038024000004742007000406B4A136875
:1014940043F480731360FFF7FBF90646674B1B6840
:1014A40013F4807FC8D1FFF7F3F9801B0228F5D924
:1014B4000320B2E0624A136F43F001031367C9E7E4
:1014C4005F4B1A6F42F004021A671A6F42F001026E
:1014D4001A67BFE7FFF7DCF90646594B1B6F13F099
:1014E400020F08D0FFF7D4F9801B41F288339842E9
:1014F400F3D9032091E0EDB9A369002B00F08C80AF
:101504004F4A926802F00C02082A54D0022B17D0DA
:101514004C4B00221A66FFF7BBF90446484B1B6884
:1015240013F0007F45D0FFF7B3F9001B0228F5D96B
:10153400032072E0424A136C23F080531364DBE708
:10154400404B00221A66FFF7A3F905463C4B1B6883
:1015540013F0007F06D0FFF79BF9401B0228F5D952
:1015640003205AE0E369226A1343626A43EA82135E
:10157400A26A5208013A43EA0243E26A43EA026376
:10158400226B43EA02732E4A53602E4B01221A66E1
:10159400FFF77EF904462A4B1B6813F0007F06D13F
:1015A400FFF776F9001B0228F5D9032035E0002067
:1015B40033E0002031E0012B31D0214B5B6803F490
:1015C4008001E26991422CD103F03F02216A8A42F0
:1015D40029D1616A47F6C0721A40B2EB811F24D147
:1015E40003F44031A26A5208013AB1EB024F1ED112
:1015F40003F07062E16AB2EB016F1AD103F0E043C9
:10160400226BB3EB027F16D1002006E00120704765
:10161400012002E0012000E0002002B070BD0120A2
:10162400FBE70120F9E70120F7E70120F5E70120B6
:10163400F3E70120F1E70120EFE700BF007000406D
:10164400003802400000474270B50D4E0D4D761B28
:10165400B61006D0002455F8043B01349847A6423E
:10166400F9D1094E094D761B00F0D4F8B61006D016
:10167400002455F8043B01349847A642F9D170BDC3
:101684004C1800084C180008541800084C1800089E
:10169400830730B548D0541E002A3FD0CAB203464F
:1016A40001E0013C3AD303F8012B9D07F9D1032C47
:1016B4002DD9CDB245EA05250F2C45EA054536D985
:1016C400A4F1100222F00F0C03F1200EE6444FEABD
:1016D400121C03F1100242E9045542E9025510328A
:1016E4007245F8D10CF1010214F00C0F03EB021255
:1016F40004F00F0C13D0ACF1040323F00303043300
:10170400134442F8045B9342FBD10CF003042CB164
:10171400CAB21C4403F8012B9C42FBD130BD644681
:101724001346002CF4D1F9E703461446BFE71A46E2
:10173400A446E0E7024B13B1024800F005B8704735
:101744000000000059170008002301461A461846F5
:1017540000F01AB838B5084B084D5B1B9C1007D035
:10176400043B1D44013C55F804399847002CF9D139
:10177400BDE8384000F054B8581800085418000860
:10178400704700BF704700BF2DE9F047DFF87CA029
:101794000646DAF8000098460F469146FFF7F0FF38
:1017A4001B4B1B68D3F8484124B365681F2D26DC06
:1017B4005EB96B1C0235DAF80000636044F82570EA
:1017C400FFF7E0FF0020BDE8F08704EB850101236B
:1017D400C1F88890D4F88821AB401A43022EC4F88B
:1017E4008821C1F80881E4D1D4F88C211343C4F8CA
:1017F4008C31DEE703F5A674C3F84841D5E7DAF87F
:101804000000FFF7BFFF4FF0FF30DCE73804002093
:1018140040180008F8B500BFF8BC08BC9E467047E5
:0C182400F8B500BFF8BC08BC9E46704739
:101830000000000000000000010203040607080980
:041840001000002074
:08184400F0E9FF7F0100000044
:08184C0039170008E90100084A
:04185400C5010008C2
:101858000024F40001000000100000000000000057
:1018680000000000FC02002064030020CC030020DC
:101878000000000000000000000000000000000060
:101888000000000000000000000000000000000050
:101898000000000000000000000000000000000040
:1018A8000000000000000000000000000000000030
:1018B8000000000000000000000000000000000020
:1018C8000000000000000000000000000000000010
:1018D8000000000000000000000000000000000000
:1018E80000000000000000000000000000000000F0
:1018F80000000000000000000000000000000000E0
:1019080000000000000000000100000000000000CE
:101918000E33CDAB34126DE6ECDE05000B00000093
:1019280000000000000000000000000000000000AF
:10193800000000000000000000000000000000009F
:10194800000000000000000000000000000000008F
:10195800000000000000000000000000000000007F
:0C1C8800000000000000000084040020A8
:04000005080007A93F
:00000001FF
